:100000000C9431080C9478080C9478080C94BC3249
:100010000C9478080C9478080C9478080C94780860
:100020000C9478080C9478080C94251C0C94E11B13
:100030000C94BA300C9478080C9478080C947808D6
:100040000C9478080C9478080C9478080C94780830
:100050000C9478080C9496300C9478080C947808DA
:100060000C9478080C9478080C9478080C94780810
:100070000C9478080C9478080C9478080C94780800
:100080000C9478080C9478080C9478080C947808F0
:100090000C9478080C9478080C9478080C947808E0
:1000A0000C9478080C9478080C9478080631FF09B1
:1000B00074A1010975150026FF00952075088102BD
:1000C0000976150026FF00952075089102C00501EC
:1000D0000980A101850319012AB700150126B7007F
:1000E000950175108100C0050C0901A10185041955
:1000F000012AA002150126A002950175108100C0F9
:100100000660FF0961A1010962150026FF00952024
:10011000750881020963150026FF00952075089176
:1001200002C005010906A101050719E029E715002C
:100130002501950875018102950175088101050762
:10014000190029FF150026FF009506750881000596
:10015000081901290595057501910295017503910D
:1001600001C00000000000000000000000000000CE
:10017000000000000000000000000000000000007F
:100180000000000000007E0F00D4FFFFFFC700004A
:10019000007800000000000000002A2B280000006A
:1001A0000000000000000000000000000029000026
:1001B00000002C1E3420212224342627252E362D03
:1001C0003738271E1F202122232425263333362E9D
:1001D00037381F0405060708090A0B0C0D0E0F100F
:1001E0001112131415161718191A1B1C1D2F313054
:1001F000232D350405060708090A0B0C0D0E0F10F8
:100200001112131415161718191A1B1C1D2F313033
:10021000354C0A002575002E6E6B726F3A20000A6D
:10022000002575002E737761705F6261636B736C7C
:100230006173685F6261636B73706163653A20002C
:100240000A002575002E737761705F6772617665AD
:100250005F6573633A20000A002575002E6E6F5F9C
:100260006775693A20000A002575002E7377617062
:100270005F72616C745F726775693A20000A0025CD
:1002800075002E737761705F6C616C745F6C67755D
:10029000693A20000A002575002E737761705F723D
:1002A00063746C5F726775693A20000A00257500F7
:1002B0002E737761705F6C63746C5F6C6775693AFD
:1002C00020000A002575002E636170736C6F636BEC
:1002D0005F746F5F636F6E74726F6C3A20000A0018
:1002E0002575002E737761705F636F6E74726F6C2B
:1002F0005F636170736C6F636B3A20000A00253096
:100300003258006B65796D61705F636F6E66696707
:100310002E7261773A20000A002575002E6D6F75E8
:1003200073653A20000A002575002E6B6579626FAF
:100330006172643A20000A002575002E6D617472A6
:1003400069783A20000A002575002E656E61626C9E
:10035000653A20000A0025303258006465627567EE
:100360005F636F6E6669672E7261773A20000A00DC
:1003700025750064656661756C745F6C6179657282
:100380003A20000A092D204D61676963202D0A4437
:100390003A094465627567204D657373616765202E
:1003A000546F67676C650A583A094D6174726978D1
:1003B000204465627567204D6F646520546F6767E0
:1003C0006C65202D2053686F77206B65797072659E
:1003D0007373657320696E206D617472697820672C
:1003E0007269640A4B3A094B6579626F61726420E5
:1003F000446562756720546F67676C65202D2053D4
:10040000686F77206B6579707265737320726570A1
:100410006F72740A4D3A094465627567204D6F75B5
:10042000736520546F67676C650A563A09566572A2
:1004300073696F6E0A533A095374617475730A4392
:100440003A09416374697661746520436F6E736F16
:100450006C65204D6F64650A46312D4631303A098E
:1004600053776974636820746F204C6179657220DA
:10047000302D392028463130203D204C30290A309B
:100480002D393A0953776974636820746F204C6181
:1004900079657220302D390A47524156453A095341
:1004A000776974636820746F204C617965722030BD
:1004B0002028616C7465726E617465290A423A097C
:1004C0004A756D7020746F20426F6F746C6F616439
:1004D00065720A4553433A094A756D7020746F205E
:1004E000426F6F746C6F616465722028616C746513
:1004F000726E617465290A453A095072696E7420FA
:10050000454550524F4D2053657474696E67730AA8
:100510004253504143453A09436C65617220454559
:1005200050524F4D0A004743433A20382E342E3064
:10053000204156522D4C4942433A20322E302E3023
:10054000204156525F415243483A20617672350A43
:10055000004F5054494F4E533A204C554641204588
:10056000585452414B455920434F4E534F4C452010
:10057000434F4D4D414E44204C544F20343039367A
:100580000A004255494C443A2020285365702031D6
:10059000362032303231290A005649443A20307828
:1005A0003132303928653377327129205049443A45
:1005B00020307834363439285355313230202834BD
:1005C00020526F7461727920456E636F6465727337
:1005D0002929205645523A203078303030310A00EF
:1005E0000A092D2056657273696F6E202D0A0074FA
:1005F000696D65725F72656164333228293A20251E
:1006000030346C580A006B6579626F6172645F699F
:10061000646C653A2025580A006B6579626F6172D7
:10062000645F70726F746F636F6C3A2025580A00B4
:10063000686F73745F6B6579626F6172645F6C651C
:10064000647328293A2025580A000A092D2053747A
:1006500061747573202D0A003F000A6D6F75736514
:100660003A206F66660A000A6D6F7573653A206FEF
:100670006E0A000A6B6579626F6172643A206F6678
:10068000660A000A6B6579626F6172643A206F6E68
:100690000A000A6D61747269783A206F66660A0012
:1006A0000A6D61747269783A206F6E0A000A646597
:1006B0006275673A206F66660A000A64656275674C
:1006C0003A206F6E0A000A0A4A756D70696E6720DB
:1006D000746F20626F6F746C6F616465722E2E2E62
:1006E0002000433E2000436C656172696E672045BF
:1006F0004550524F4D0A006565636F6E6669673AF3
:100700000A004C25640A00000101010101010101F8
:1007100001020202020202020202030303030303B4
:100720000303040404040404040505050505060682
:100730000606060707070707080808080909090940
:100740000A0A0A0B0B0B0C0C0C0D0D0D0E0E0E0FE6
:100750000F0F101011111112121313141415151676
:10076000161717181819191A1A1B1B1C1D1D1E1EE7
:100770001F20202122222324242526262728292938
:100780002A2B2C2D2D2E2F30313232333435363763
:1007900038393A3B3C3D3E3F404142434445464761
:1007A00048494A4C4D4E4F50515354555658595A3A
:1007B0005B5D5E5F616264656668696B6C6D6F70DE
:1007C00072737577787A7B7D7E8082838587888A4D
:1007D0008C8E8F91939596989A9C9EA0A2A3A5A784
:1007E000A9ABADAFB1B3B5B7BABCBEC0C2C4C6C980
:1007F000CBCDCFD1D4D6D8DBDDDFE2E4E7E9EBEE39
:10080000F0F3F5F8FAFDFF7267626C6967687420AF
:100810006D6F6465205B4E4F454550524F4D5D3ABC
:100820002025750A007267626C69676874206D6FB5
:100830006465205B454550524F4D5D3A2025750A51
:10084000007267626C696768742064697361626CC6
:1008500065205B4E4F454550524F4D5D3A207267C3
:10086000626C696768745F636F6E6669672E656E38
:1008700061626C65203D2025750A007267626C69B3
:100880006768742073657420687376205B4E4F45EB
:100890004550524F4D5D3A2025752C25752C2575F8
:1008A0000A007267626C69676874207365742068F7
:1008B0007376205B454550524F4D5D3A2025752C8F
:1008C00025752C25750A007267626C69676874204B
:1008D00074696D657220656E61626C65642E0A00D4
:1008E0007267626C696768742074696D65722064F0
:1008F000697361626C652E0A002223252628292A45
:100900002C2D2F3032333536383A3B3D3E40424372
:100910004547494A4C4E5051535557595A5C5E60B1
:1009200062646668696B6D6F71737577797B7D7FC3
:1009300081838587898A8C8E90929496989A9C9EC2
:100940009FA1A3A5A7A8AAACAEAFB1B3B4B6B8B9DE
:10095000BBBCBEBFC1C2C3C5C6C7C9CACBCCCDCE46
:10096000D0D1D2D2D3D4D5D6D7D7D8D9D9DADADB29
:10097000DBDBDCDCDCDCDCDDDDDDDDDCDCDCDCDCB5
:10098000DBDBDBDADAD9D9D8D7D7D6D5D4D3D2D2F4
:10099000D1D0CECDCCCBCAC9C7C6C5C3C2C1BFBEDC
:1009A000BCBBB9B8B6B4B3B1AFAEACAAA8A7A5A347
:1009B000A19F9E9C9A98969492908E8C8A89878506
:1009C00083817F7D7B79777573716F6D6B696866E5
:1009D0006462605E5C5A5957555351504E4C4A49B7
:1009E00047454342403E3D3B3A3836353332302F5F
:1009F0002D2C2A29282625232229003A003B003CB9
:100A0000003D003E0035001E001F00200021002296
:100A1000002B0014001A000800150017003900040C
:100A2000001600070009000A00E1001D001B000677
:100A30000019000500E000E300E2008B002C002C10
:100A4000003F0040004100420043004C00230024CE
:100A5000002500260027002A001C0018000C0012A8
:100A600000130031000B000D000E000F00330028B2
:100A700000110010003600E500520001512C008AE0
:100A800000E600500051004F00C35CC45C00000051
:100A90000000000000C65CC85CCA5CDF5C000000AF
:100AA00000C75CC95CCB5C005C000000000000007B
:100AB0000000000000000000000000000000000036
:100AC0000000000000000000000000000000000026
:100AD0000000000000000000000000000000000016
:100AE0000000000000000000000000000000000006
:100AF00000000000000000000000000000000000F6
:100B000000000000000000000000000100000000E4
:100B100000000000000000000000000000000000D5
:100B200000000000000000000000000000000000C5
:100B300000000000000000000000000000000000B5
:100B400000000000000000000000000000000000A5
:100B50000000000000000000000000000000000095
:100B60000000000000000000000000000000000085
:100B70000000000000000000000000000000000075
:100B80000000000000000000000000000000000065
:100B90000000000000000000000000000000000055
:100BA0000000000000000000000000000000000045
:100BB0000000000000000000000000000000000035
:100BC0000000000000000000000000000000000025
:100BD0000000000000000000000000000000000015
:100BE0000000000000000000000000000000000005
:100BF00000000000000000000000000000000000F5
:100C000000000000000000000000000000000000E4
:100C100000000000000000000000000000000000D4
:100C200000000000000000000000000000000000C4
:100C300000000000000000000030303000303000C4
:100C40007267626C696768742064697361626C655D
:100C5000205B454550524F4D5D3A207267626C698A
:100C60006768745F636F6E6669672E656E61626C3C
:100C700065203D2025750A007267626C696768749B
:100C800020656E61626C65205B454550524F4D5D3D
:100C90003A207267626C696768745F636F6E666939
:100CA000672E656E61626C65203D2025750A0072B5
:100CB00067626C6967687420746F67676C65205B36
:100CC000454550524F4D5D3A207267626C696768C6
:100CD000745F636F6E6669672E656E61626C652016
:100CE0003D2025750A0044454255473A2064697302
:100CF00061626C65642E0A0044454255473A20659E
:100D00006E61626C65642E0A000A092D20436F6EC5
:100D1000736F6C65202D0A4553432F713A09717525
:100D200069740A003F00433E20000A002530325813
:100D300020006B6579626F6172645F7265706F72BB
:100D4000743A20007267626C696768745F636F6EE3
:100D50006669672E7370656564203D2025640A000E
:100D60007267626C696768745F636F6E6669672E2D
:100D700076616C203D2025640A007267626C6967A9
:100D800068745F636F6E6669672E736174203D20BF
:100D900025640A007267626C696768745F636F6ECE
:100DA0006669672E687565203D2025640A007267B4
:100DB000686C696768745F636F6E6669672E6D6FD4
:100DC0006465203D2025640A007267626C6967686B
:100DD000745F636F6E6669672E656E61626C652015
:100DE0003D2025640A007267626C696768745F63FE
:100DF0006F6E66696720454550524F4D3A0A007242
:100E000067626C696768745F696E69742072676293
:100E10006C696768745F636F6E6669672E6D6F6477
:100E200065203D20302E2057726974652064656608
:100E300061756C742076616C75657320746F2045E4
:100E40004550524F4D2E0A007267626C6967687494
:100E50005F696E6974206565636F6E666967206996
:100E600073206E6F7420656E61626C65642E0A007B
:100E70007267626C696768745F696E697420737405
:100E8000617274210A007267626C696768745F69D5
:100E90006E69742063616C6C65642E0A000A00251B
:100EA000303862003A200025303258000A722F6331
:100EB0002030313233343536370A007267626C695C
:100EC00067687420616E696D6174696F6E20746902
:100ED000636B207265706F727420746F20736C6125
:100EE00076650A00643214783C1E1E140A050A0056
:100EF00025303258006B6579626F6172645F73658B
:100F0000745F6C65643A20007267626C696768742C
:100F100020656E61626C65205B4E4F454550524FB7
:100F20004D5D3A207267626C696768745F636F6ECB
:100F30006669672E656E61626C65203D2025750AC5
:100F4000007267626C6967687420736574207370DF
:100F5000656564205B4E4F454550524F4D5D3A20CC
:100F600025750A005B735D004B6579626F61726481
:100F70002073746172742E0A005B435D005B445DF4
:100F8000005B535D005B575D005B525D0009027BB7
:100F900000040100A0FA0904000001030101000996
:100FA00021110100012240000705810308000A0900
:100FB00004010002030000000921110100012222A6
:100FC0000007058203200001070503032000010933
:100FD0000402000103000000092111010001223276
:100FE000000705840320000A09040300020300002F
:100FF00000092111010001222200070585032000BC
:10100000010705050320000112011001000000087E
:101010000912494601000102000134035300550042
:10102000310032003000200028003400200052003F
:101030006F007400610072007900200045006E00AE
:1010400063006F00640065007200730029000000F7
:101050000C036500330077003200710000000403C8
:10106000090411241FBECFEFDAE0DEBFCDBF04B606
:1010700003FE27C08091320390913303A091340383
:10108000B09135038730904BA740B04BD1F410920C
:10109000320310923303109234031092350314BEBE
:1010A00084B7877F84BF0FB6F894A89580916000BD
:1010B000886180936000109260000FBEE0E0F8E36A
:1010C000099511E0A0E0B1E0E8E5F9E602C005907D
:1010D0000D92A43CB107D9F723E0A4ECB1E001C024
:1010E0001D92A233B207E1F70E94A4290C945F3449
:1010F0000C940000FF93EF93E091C401F091C501BF
:10110000309709F00995EF91FF910895FC018591C1
:10111000803011F0EFDFFBCF0895FF27E0E230E2EF
:1011200047FF0CC0419597FF09C0EDE260957095AF
:1011300080959095611D711D811D911D27FF02C035
:10114000219530E350E2AA27660F771F881F991F69
:10115000AA1FA41710F0A41B63955A95A9F7AA30EB
:1011600008F0A95FA05DAF93F39561157105810546
:10117000910541F7ED3211F4EF93F395F21718F45E
:101180003F93F395FBCF8F91B5DFFA95E1F7089583
:10119000E991F9918591803021F0853219F0AADF2B
:1011A000F9CF089520E0E89455915532C1F35033BA
:1011B00011F4689455915A3348F4505390F3220F28
:1011C000022E220F220F200D250FF4CF0EF42195B1
:1011D00089919991533619F3533729F1533559F1C0
:1011E000BC0188279927E8945C3621F4899199916C
:1011F00068945591543639F446EF7EF077FF0DC070
:101200008FEF9FEF0AC055374AE039F0583540E17B
:1012100021F0523642E009F00895FF93EF937DDF0D
:10122000EF91FF91B7CFFF93EF93FC018191803055
:10123000B9F360DFFBCFFF93EF9368DFF1CFDF936C
:10124000CF93CDB7DEB72596A3DFCF91DF91089579
:10125000E8EDF0E080818E7F80831092E2001092B2
:10126000DA001092E100A0EEB0E08C9181608C93E6
:1012700080818F77808319BCA7EDB0E08C918E7F41
:101280008C9380818F7E80831092F7020895209145
:10129000E4003091E50095E6A9012091EC00822F51
:1012A000817020FF06C08091E80080FF06C080E0CA
:1012B00008952091E80022FD1AC08091040388233C
:1012C00089F0853089F08091EB0085FD0FC0209179
:1012D000E4003091E50042175307F9F29150E1F62E
:1012E00084E0089582E0089583E0089581E0089500
:1012F000EF92FF920F931F93CF937C018B010E947B
:101300004709C82F811117C08091E80085FD0BC0E7
:101310008091E8008E778093E8000E944709882337
:1013200099F3C82F08C0F70181917F018093F100E4
:101330000150110949F78C2FCF911F910F91FF9008
:10134000EF9008958091060387FF13C08091E80015
:1013500082FF06C08091E8008B778093E80004C08C
:10136000809104038111F2CF0895809104038823B2
:10137000D9F38091E80080FFF8CF8091E8008E7764
:10138000ECCF982F9093E900242F762F50E0891707
:1013900031F07091EC002091ED005091F00021FDB2
:1013A00007C09F5F973071F78093E90081E008954F
:1013B0003091EB003E7F3093EB003091ED003D7FAC
:1013C0003093ED003091EB0031603093EB0070937F
:1013D000EC002093ED005093F0002091EE0027FDEB
:1013E000E0CF80E00895CF92DF92EF92FF920F93CB
:1013F0001F93CF93DF93C8EDD0E088818F7E8883E1
:10140000E7EDF0E080818160808384E082BF81E04D
:101410008093F70288818E7F888302EE10E0F801C6
:1014200010821092DA0081EEC82ED12CF6011082C3
:1014300088818F77888388818068888388818F7D81
:10144000888319BC109204031092050310920303C1
:101450001092020390EEE92EF12CF70180818B7F30
:10146000808388818160888342E060E080E00E9420
:10147000C109F60180818E7F8083F80180818160BF
:101480008083808188608083F70180818E7F808364
:10149000888180618883DF91CF911F910F91FF90A8
:1014A000EF90DF90CF900895FC0180910C03909114
:1014B0000D0386179707A0F06115710529F4909127
:1014C000E8009E779093E80090E06115710551F473
:1014D000911108C08091E80082FF34C080E0089537
:1014E000BC01F2CF809104038823C1F18530C1F1A2
:1014F0008091E80083FD30C08091E80082FDEACF52
:101500008091E80080FFE1CF8091F3002091F2000C
:10151000382F6115710519F02830310558F091E028
:101520002830310509F090E02091E8002E772093D3
:10153000E800CBCF81918093F100615071092F5F5A
:101540003F4FE7CF80910403882341F0853041F07D
:101550008091E80083FFBECF81E0089582E0089586
:1015600083E00895089508958091F902089587E72A
:1015700097E7909301088093000888E19AE00FB6FE
:10158000F894A895809360000FBE90936000FFCF01
:101590002FB7F89460911203709113038091140394
:1015A000909115032FBF08952FB7F89480911203DF
:1015B00090911303A0911403B09115032FBF0895C8
:1015C0008091A20281111092A2020895E8ECF1E04C
:1015D0009191891303C0DF0111971C9291E0EE3CB9
:1015E000F907B1F70895A8ECB1E0EFEF90E02D9185
:1015F000821751F0EF3F19F4211101C0E92F9F5FCD
:101600009630A9F7EF3F09F408950E2E000CFF0B5A
:10161000EA53FE4F82830895E92FEE0FE90FEE0F94
:101620008E0F982F977086958695869525E0829FD8
:10163000F0011124EF58FD4F50E040E080E021918F
:1016400030E0092E02C0369527950A94E2F7217002
:101650003327042E01C0220F0A94EAF7822B4F5F32
:101660005F4F4530510559F70895E92FEE0FE90F07
:10167000EE0F8E0F982F977041E001C0440F9A959E
:10168000EAF786958695869595E0899FF001112465
:10169000EF58FD4F30E020E070E05191DF011197ED
:1016A000CB01022E02C0969587950A94E2F78170CD
:1016B00081958527842385278C932F5F3F4F253085
:1016C000310559F708958091700290913F02981367
:1016D00001C008958F5F8770FACF0C94C80A2091DB
:1016E0003502309136022817390771F0909336028F
:1016F00080933502E091BE02F091BF02309721F055
:101700000084F185E02D09940895209133023091F1
:1017100034022817390771F0909334028093330212
:10172000E091BE02F091BF02309721F00680F78170
:10173000E02D09940895E091BE02F091BF02309728
:1017400021F00190F081E02D099480E00895FA01E4
:10175000811101C0FB0109948091E402982F9E7FC2
:1017600029F4817082608093E40208958E31E8F359
:1017700081708C61F8CFAF92BF92DF92EF92FF92AF
:101780000F931F93CF93DF93082F162FE901E42FB8
:10179000F0E0E95FF84F611110C0E4915E2F4E2F29
:1017A0004983E8835A83DF91CF911F910F91FF9076
:1017B000EF90DF90BF90AF900895E62EF12C44910A
:1017C000D42EE42FF0E026E0829FC00111242FEFF9
:1017D00030E0B9010E94D533802F90E0880F991F27
:1017E00055E5569FD001579FB00D11248A1B9B0BC6
:1017F000982F990F890F5901AE18BF08AE9ED001DE
:10180000AF9EB00DBE9EB00D11245B2F189F8001BE
:101810001124012F11275901A01AB10AAE9E80018F
:10182000AF9E100DBE9E100D11245901A81AB108CB
:10183000AE9CC001AF9C900DBE9C900D1124892FD1
:101840009927281B390B2E9FC0012F9F900D3E9F7B
:10185000900D1124E92F62307105A1F050F461154B
:10186000710509F49DCF6130710581F0EB2F512F87
:1018700097CF6430710569F080F06630710509F426
:101880008FCFF4CFE42F4B2F592F8ACFE42F412F46
:1018900087CFEB2F542F492F83CF4B2F5D2DE12F77
:1018A0007FCFF894E82FE295EF70F0E031A1282F78
:1018B0002F7081E090E001C0880F2A95EAF7982FF9
:1018C0009095932391A392A1892B82A37894089554
:1018D0009091BA0292FF06C0282F28712830F9F49F
:1018E000877F846093FF06C0282F28712831F1F488
:1018F000877E84612091BB0220FF06C0382F38719B
:101900003830D9F4877F816021FF06C0282F2871E5
:101910002831D1F4877E816194FD877E0895282F38
:1019200024712430F9F68B7F8860DCCF282F247156
:10193000243101F78B7E8861DDCF382F3171313052
:1019400019F78E7F8860E0CF282F2171213121F790
:101950008E7E8861E1CF829590E09C01220F331F3B
:10196000220F331F2C7C95958795959587958373CA
:10197000282B30E0C901880F991F8A7A3595279561
:101980002575822B0895CF93DF9300D000D00F925E
:10199000CDB7DEB76B837C838D838C819D81892B52
:1019A00021F0CA0189238F3F51F480E081700F90AC
:1019B0000F900F900F900F90DF91CF9108958B8132
:1019C000F5CFCF9384E090E00E940A34C82F81E2E3
:1019D00090E00E940A34982F8C2FCF9108950F9396
:1019E0001F93CF93DF93C42FD0E0CC0FDD1F2CE0EB
:1019F000629FC00DD11D112430E9839FC00DD11D00
:101A00001124CE0186960E940A34082F10E0102F70
:101A10000027CE0187960E940A349801282BC9011D
:101A2000DF91CF911F910F910895462F843038F4A4
:101A30007C3028F4663018F4672F0C94EF0C90E09B
:101A400080E00895CF93DF930E94150DEC0182385A
:101A50009105A9F1D8F58133910509F496C048F5AF
:101A60008932910509F48AC08A9709F495C0C11595
:101A700022E5D20708F0B6C0C11531E5D30708F05A
:101A800026C1C83ED10508F09CC0C13ED10560F515
:101A9000C83AD10508F087C0C53AD10508F0EFC0B3
:101AA000C130D10509F12097F9F0C430D105E0F437
:101AB00040C08533910509F45AC0C997C1F6809199
:101AC000BA02837089F0C0EED0E00EC0833E91056B
:101AD00099F170F4803E910501F1823E910539F64D
:101AE0008091BA0282FD21C0CE01DF91CF9108958D
:101AF000863E910561F1873E910571F1843E910525
:101B000009F0B5CF8091BB0281FFEECF8091BA0280
:101B1000C7EED0E084FD0DC0E7CF8091BA0280FD12
:101B200007C19091BB0290FFDFCFC3EED0E084FFEE
:101B3000DBCFD0E0C0E0D8CF8091BA0282FDFBC0FD
:101B40009091BB0290FDBFCF84FFCECFF2CF8091AA
:101B5000BA0283FDDDCFC8CF8091BA0283FDEEC00B
:101B60009091BB0291FFF0CFC4EED0E0BDCF809149
:101B7000BA0285FFB9CFC9E2D0E0B6CF8091BA02F0
:101B800085FFB2CFC5E3D0E0AFCF8091BA0286FF28
:101B9000ABCFCAE2D0E0A8CF8091BA0286FFA4CF33
:101BA000C1E3D0E0A1CFCF3BD10518F6C85AD0E0B1
:101BB000CC0FDD1FC45ADE4F0990D881C02DD464EC
:101BC00093CFC11540E5D40708F064C0C11580E487
:101BD000D80708F05CC0CE019A9581159F4108F4A2
:101BE00083CFA7CFC11536E5D30718F5C11545E555
:101BF000D40708F084C0C11584E5D80708F07AC07E
:101C00009C2F969596959E0123703327C115D34539
:101C100008F462C0C1E0D0E002C0CC0FDD1F2A95FD
:101C2000E2F730E2939FC0011124C82BD92BDA6868
:101C30005BCFC1158AE5D80778F4C11599E5D907B6
:101C400008F068C0C11528E5D20708F472CFDC2F70
:101C5000CC27C06FD06A48CFCE01905681159042F4
:101C600008F067CF8D2F8F710E94680C90E0982F3D
:101C7000882788279F719C012C2BE90149C0C55AF0
:101C8000D0E0C75ADE4FC881D0E0D0642DCFDF70DE
:101C9000D06A2ACFCE01E4E096958795EA95E1F7E0
:101CA00083702C2F26952695237040E2249F900167
:101CB0001124382B8C2F8370C1E0D0E002C0CC0FF0
:101CC000DD1F8A95E2F7C22BD32BDC680DCFDC2F0A
:101CD000CC27C16FD06A08CFC1E0D0E002C0CC0FE2
:101CE000DD1F2A95E2F720E2929FC0011124C82B44
:101CF000D92BEBCFDC2FCC27C46FD06AF5CE8C2F3D
:101D00000E94680CC82FD0E0DC2FCC27CC27DF71D5
:101D1000D062EACE8C2F8F700E94680C34E0D6958A
:101D2000C7953A95E1F7CF709C2FEC01D069DCCED6
:101D3000C9E3D0E0D9CEC2EED0E0D6CEC6EED0E038
:101D4000D3CEBF92CF92DF92EF92FF920F931F9369
:101D5000CF93DF938C01C0900E03D0900F03E090DF
:101D60001003F09011038091A3029091A402A0911E
:101D7000A502B091A602C82AD92AEA2AFB2ACFE1F5
:101D8000D0E0BC2ED701C6010C2E04C0B695A79595
:101D9000979587950A94D2F780FD0EC0219788F712
:101DA000B12C8B2DDF91CF911F910F91FF90EF9070
:101DB000DF90CF90BF900895B8018C2F0E94220D24
:101DC000019761F3EECFCF93DF93EC010E94A10E58
:101DD000BE01DF91CF910C94220D0E94E30E292FBA
:101DE0002F7092959F7092509E3078F4E92FF0E01A
:101DF000EF59FB4C0C94FD33803F19F020F4883EE2
:101E000020F481E00895843FE1F380E00895883E66
:101E1000C0F3813FD1F7F5CF822F869586958695C1
:101E200008956F927F928F929F92AF92BF92CF92BE
:101E3000DF92EF92FF920F931F93CF93DF9389EF7F
:101E4000C82E89E0D82E92ECE92EF12CE701C0597A
:101E5000D10936011BC0F50185909490692DC80108
:101E60000E941E34682DC80101960E941E3482E033
:101E7000A80EB11C0E5F1F4FC017D10761F78CE091
:101E8000680E711C2C96CE15DF0529F08E010C50C2
:101E900011095301E0CF7E0180E9E80EF11C80E9D1
:101EA000C80ED11C82E0E81683E0F80679F6DF91CF
:101EB000CF911F910F91FF90EF90DF90CF90BF9047
:101EC000AF909F908F907F906F900895CF93DF9306
:101ED000C6E6D2E060E0CE010E941E342196C11514
:101EE00084E0D807B9F7DF91CF910895EF92FF9280
:101EF0000F931F93CF93DF938091A1029091A00243
:101F0000892B90919F02892B8093C6019091A20208
:101F1000992391F0892B8093C60120E088EC91E011
:101F2000FC013191CF0131112F5FF1E08E3C9F0711
:101F3000B9F721110E94E00AE091BE02F091BF02C0
:101F40003097C9F10280F381E02D86EC91E009958C
:101F50008091E30282FF2FC080FF04C082E39DE0F6
:101F60000E948608C6ECD1E08EECE82E81E0F82EC7
:101F70000CE21DE08091E30280FF0BC088811F927C
:101F80008F931F930F930E941F090F900F900F9034
:101F90000F902196EC16FD0669F78091E30280FF11
:101FA0000AC08AE29DE0DF91CF911F910F91FF90CF
:101FB000EF900C948608DF91CF911F910F91FF90C5
:101FC000EF90089590E080E00E94850B90E080E023
:101FD0000E946F0B1092A00210929F020C94760F39
:101FE00060930E0370930F0380931003909311037B
:101FF0000C94E20F0F931F9360910E0370910F03E7
:1020000080911003909111038B019C0106701127A0
:1020100022273327063011052105310529F4686090
:102020001F910F910C94F00F677FFACF0F931F93BE
:1020300041E050E060E070E004C0440F551F661FAF
:10204000771F8A95D2F7CB01BA016095709580957C
:10205000909500910E0310910F0320911003309181
:10206000110360237123822393231F910F910C94FA
:10207000F00F90919E028095892380939E02282FD5
:10208000277071F4282F082E000C330B92171306BB
:1020900039F08595859585950E94161010929E02BF
:1020A00008950F931F9341E050E060E070E004C09A
:1020B000440F551F661F771F8A95D2F780910E0334
:1020C00090910F03A0911003B09111038A019B011D
:1020D000082B192B2A2B3B2BC901B8011F910F91FB
:1020E0000C94F00F6093A3027093A4028093A50256
:1020F0009093A6020C94E20F882341F08095909172
:10210000A10289238093A1020C94760F089588235D
:1021100039F09091A102982B9093A1020C94760F24
:102120000895882309F452C0823871F40E949B0BF1
:1021300081FF4CC089E30E94F30A0E94760F89E375
:102140000E94E60A0C94760F833859F40E949B0B88
:1021500080FF3CC083E50E94F30A0E94760F83E56E
:10216000EFCF843859F40E949B0B82FF2FC087E485
:102170000E94F30A0E94760F87E4E2CF9CEF980F4B
:10218000913AF0F290E2980F983088F4877021E04D
:1021900030E0A90102C0440F551F8A95E2F7CA0139
:1021A00080959091A10289238093A102CBCF9BE5DA
:1021B000980F933020F490E080E00C94850B885ABF
:1021C000873120F490E080E00C946F0B089510921A
:1021D000CB028091CC0284608093CC028091E30298
:1021E00080FF08C080EE98E09F938F930E941F09A4
:1021F0000F900F9008959FB7F8941092F5029FBF2B
:1022000090910403943009F048C02091E9002F70A8
:102210003091EC00932F917030FD90E8922B25E0E7
:102220002093E9002091EB0020FF34C02091EE00C4
:1022300027FF30C02091A702222321F02091E8003F
:1022400025FF28C01092A70226E03091E80035FF54
:1022500014C08093F1008091E80085FD27C0809133
:10226000E80080FFFCCF8091E8008E778093E80043
:102270009F709093E90080E008953091040334301A
:1022800049F43091EB0035FD05C0215041F481E067
:102290008093A7029F709093E9008FEF0895EFE974
:1022A000FFE03197F1F700C00000CFCF8FB7F8946F
:1022B00021E02093F5028FBFDBCFCF93DF9300D0D7
:1022C0000F92CDB7DEB790910403943011F5898356
:1022D0007B836A839093E9008FEF9091E8008150AF
:1022E00095FD06C095ED9A95F1F700008111F5CFA7
:1022F0008091E80085FF0DC050E040E063E070E0B1
:10230000CE0101960E9478098091E8008E77809333
:10231000E8000F900F900F90DF91CF910895BC01CE
:1023200084E00C945D11BC0183E00C945D11CF93AB
:10233000DF93EC0181E08093E9008FEF9091E8005A
:10234000815095FD06C095ED9A95F1F70000811139
:10235000F5CF8091E80085FF14C050E040E068E0D0
:1023600070E0CE010E9478098091E8008E7780931A
:10237000E80088E0FE01AAEFB2E001900D928A9594
:10238000E1F7DF91CF91089560912A018091E402F5
:1023900080FF20C08091290143E0849FC001112467
:1023A0008D529E4F539A2BB1277F3BB138605FB758
:1023B000F894FC01649FE00DF11D1124BF01681722
:1023C0007907D1F45FBF8FE594E00197F1F700C082
:1023D0000000089580912B0190912C0123E0829FB1
:1023E000F0011124ED52FE4F8917A0F611821082E0
:1023F00012828F5F3396F8CFFC014191CF01E8E064
:102400003BB9000000C047FF2BB9440F000000C0DB
:1024100000C000C02BB900C0EA9591F7D0CFEF9271
:10242000FF921F93CF93DF93EC0110E0EE24EA9428
:10243000F12C60912D01161770F00E94C4119A8141
:102440008C8190FF27C08F5F8C83DF91CF911F918C
:10245000FF90EF90089520912B01422F410F5527B7
:10246000551FCA019A01220F331F280F391F2D5201
:102470003E4F70E0C7010E94E933962F8C81409156
:10248000E7026091E602199F800D11240E94BB0BA8
:102490001F5FCFCF8150D8CF9091E40290FF14C03E
:1024A00090912B0120912C0133E0939FF001112496
:1024B000ED52FE4F921710F00C94C411818360838B
:1024C00042839F5F3396F6CF0895CF93DF9300D07A
:1024D0000F92CDB7DEB79091E40290FF0AC09E0143
:1024E0002F5F3F4F0E94BB0B4B8169818A810E9405
:1024F0004C120F900F900F90DF91CF910895CF93D2
:10250000DF93EC01EC81F0E0E750F74F4491E4EE0B
:10251000F2E0628181810E9465128C818F5F8C83E1
:10252000DF91CF910895CF93DF93EC01E4EEF2E0D9
:10253000438162818C810E9465128C818F5F8C83C4
:10254000DF91CF9108958091E4028E7F8093E40221
:102550008091E30280FF0CC01F921F9281E498E0FB
:102560009F938F930E941F090F900F900F900F90D1
:102570000E94E7108091CC0281608093CC022FEF03
:1025800080E792E0215080409040E1F700C00000D9
:102590000C94C4118091D201811111C08091D80096
:1025A00080618093D8008AE18A95F1F700C090910C
:1025B000D900892F817090FF82E08093D20181E061
:1025C0009091D201913009F080E008956BEE7EEF9A
:1025D00090E080E00E943C3460E082E090E00E9465
:1025E0001E3460E083E090E00E941E341092A3024B
:1025F0001092A4021092A5021092A60260E084E05C
:1026000090E00E941E3460E081E290E00E941E345F
:1026100060E085E090E00E941E3460E086E090E09B
:102620000E941E346FEF87E090E00E941E3440E06D
:1026300050E0BA0188E090E00E94303460E08DE024
:1026400090E00E941E3440E050E0BA0188E190E042
:102650000E94303460E087E190E00E941E3440E048
:1026600050E0BA018CE190E00E94303460E080E2FA
:1026700090E00E941E3440E050E0BA0188E190E012
:102680000E94303440E050E0BA018FE090E00E94B8
:10269000303440E050E0BA0183E190E00C943034F3
:1026A000CF92DF92EF92FF926B017C010E94AC0B04
:1026B000B701A60188E090E0FF90EF90DF90CF9007
:1026C0000C943034EF92FF920F931F93CF93DF93CC
:1026D00000D00F92CDB7DEB7182FF62E042FE22EC2
:1026E0008091E40280FF55C0E82FE695F0E0E65BBC
:1026F000FE4F90819093CA028E7F823009F053C0C2
:102700009E012F5F3F4F812F0E94BB0B4B81698140
:102710008A810E944C128091E502811308C0809149
:10272000E6028F1104C08091E702801729F08091A2
:10273000CC0282608093CC021093E502F092E60214
:102740000093E702EE20E9F16091E4027091E50266
:102750008091E6029091E7020E9450138091E3027B
:1027600080FF17C08091E7021F928F938091E6024D
:102770001F928F938091E5021F928F9382EA98E0D7
:102780009F938F930E941F090FB6F894DEBF0FBE70
:10279000CDBF0F900F900F90DF91CF911F910F91B0
:1027A000FF90EF900895923019F40091E702B3CFB3
:1027B0008091E502963019F0993009F0ACCF182FCE
:1027C000AACF8091E30280FFE4CF1F920F931F9264
:1027D000FF921F921F938BE798E0D2CFE4EEF2E0D6
:1027E000438128E0421B08F440E021E062818181BE
:1027F0000C946213E4EEF2E0438128E0420F08F407
:102800004FEF21E0628181810C946213E4EEF2E0EB
:10281000628128E0621B08F460E021E0438181814D
:102820000C946213E4EEF2E0628128E0620F08F497
:102830006FEF21E0438181810C946213E4EEF2E0BA
:10284000818121E04381628188500C946213E4EE1F
:10285000F2E0818121E043816281885F0C94621300
:102860008091E802882319F081508093E8026091FA
:10287000E4027091E5028091E6029091E7020C94E7
:1028800050138091E802833018F48F5F8093E80240
:102890006091E4027091E5028091E6029091E70276
:1028A0000C945013E4EEF2E083E0808311828FEF0A
:1028B000828383831482AAECB2E012968C911297E1
:1028C000836012968C9360817181828193810C94D4
:1028D00050131092A102E8ECF1E086E0DF011D92B6
:1028E0008A95E9F70C94E20F1F93CF93DF93CDB74E
:1028F000DEB7AA970FB6F894DEBF0FBECDBF86E055
:1029000093E02091F100DC012D93CD01B3E08E30F6
:102910009B07B9F780910703833009F471C0B8F4BD
:10292000813009F448C0823009F4B2C08091E800D7
:1029300083FF3AC180910603909107039A3008F013
:1029400033C1E92FF0E0E159FB4C0C94FD338A30A0
:1029500009F48DC08B3009F470C0893039F780914B
:102960000603813219F780910A0390910B030097B7
:1029700011F00297D9F68091E800877F8093E800F4
:102980008091E80082FF37C09091F3008091F200BF
:10299000029729F48091F1008B7F813021F480919E
:1029A000F1008093F9028091E8008B778093E80032
:1029B0000E94A209BBCF80910603813A09F0B6CFED
:1029C0008091E800877F8093E80080910A039091CE
:1029D0000B03892B61F468E08AEF92E070E00E94BB
:1029E000540A8091E8008B778093E8009FCF60E0E5
:1029F00090E080E0F3CF809104038111C1CF96CFA6
:102A000080910603813A09F091CF80910A03909159
:102A10000B03892B09F08ACF8091E800877F809390
:102A2000E8008091E80080FFFCCF8091390180931D
:102A3000F1008091E8008E77B9CF80910603813252
:102A400009F074CF80910A0390910B03892B09F050
:102A50006DCF8091E800877F8093E8000E94A209F3
:102A600080910803809339010E9469145FCF80919F
:102A70000603813209F05ACF8091E800877F809366
:102A8000E8000E94A209809109038093F8024ECFCA
:102A900080910603813A09F049CF8091E800877F51
:102AA0008093E8008091E80080FFFCCF8091F802DD
:102AB000BECF803899F0823809F076C080910A0341
:102AC0008F70873008F070C08093E9008091EB0030
:102AD00085FB882780F91092E90006C080910203E7
:102AE00090910303911182609091E800977F9093F9
:102AF000E8008093F1001092F1008091E8008E7759
:102B0000BAC1882309F4A7C1823009F04DC0809171
:102B100008038111ABC180910A038F702FEF280F3A
:102B2000263008F041C08093E9002091EB0020FF9F
:102B30009DC1933031F48091EB0080628093EB0073
:102B400095C19091EB0090619093EB0021E030E013
:102B500001C0220F8A95EAF72093EA001092EA005A
:102B60008091EB008860EACF81111EC010910803AC
:102B70001F778091E3008078812B8093E300809120
:102B8000E800877F8093E8000E94A2098091E80016
:102B900080FFFCCF8091E30080688093E30082E0B7
:102BA000111183E0809304038091E80083FF0AC041
:102BB0008091E800877F8093E8008091EB0080623D
:102BC0008093EB00AA960FB6F894DEBF0FBECDBF80
:102BD000DF91CF911F9108958058823028F720917E
:102BE0000803309109032C3DE3E03E07A1F583E0A3
:102BF0008A838AE289834FB7F894DE01139620E036
:102C00003EE051E2E32FF0E050935700E49120FFC3
:102C100003C0E295EF703F5FEF708E2F90E0EA30D7
:102C2000C0F0C7968D939D932F5F243159F74FBF06
:102C30008091E800877F8093E8006AE270E0CE012F
:102C400001960E94540A8091E8008B778093E800F7
:102C5000ABCFC096E7CF80910A0390910B03432F2F
:102C600055274330510509F44AC078F541305105E4
:102C700009F47AC08BE790E0EDE8FFE042305105BF
:102C800009F092CF2091E800277F2093E80020915F
:102C90000C0330910D038217930708F49C0140E068
:102CA0002115310509F065C0411163C08091E8002C
:102CB00082FDC9CF80910403882329F2853019F25F
:102CC0008091E80083FFF2CFBECF4132510509F475
:102CD0003CC04232510509F067CF8430910508F0BD
:102CE00063CFFC01EE0FFF1FEC54FE4F0190F0810B
:102CF000E02D80559E4FDC018C9190E01AC0332767
:102D000021303105D1F02115310561F02230310536
:102D100009F04ACFEAE1F0E1E4918E2F90E0EAE198
:102D2000F0E107C0EEE5F0E1E4918E2F90E0EEE5F2
:102D3000F0E1009709F438CFA5CFE0E5F0E1E491A8
:102D40008E2F90E0E0E5F0E1F4CF8430910508F0BB
:102D50002BCF880F991FFC01E454FE4F0190F081A6
:102D6000E02D89E090E08ECF82E190E0E8E0F0E1B4
:102D700089CF80910403882309F465CF853009F455
:102D800062CF8091E80083FD5ECF8091E80082FDF4
:102D90008DCF8091E80080FF83CF9091F3008091E8
:102DA000F2002115310519F08830910550F041E00D
:102DB000089709F040E08091E8008E778093E80062
:102DC0006FCF44914093F100319621503109019623
:102DD000E8CF803809F0E8CE8091E800877F8093C3
:102DE000E800809105038093F10087CE8111DCCE4D
:102DF00010910803123008F0D7CE8091E800877F49
:102E00008093E800109305030E94A209112311F09A
:102E100084E005C08091E30087FDFACF81E08093D4
:102E2000040342E061EC81E00E94C10942E261ECEE
:102E300084E00E94C10942E261EC82E00E94C10983
:102E400042E260EC83E00E94C10942E261EC85E06D
:102E50000E94C109A9CE80910803813009F0A4CE57
:102E600081E0933009F080E0809303031092E90041
:102E70008091E800877F8093E8000E94A20994CEA9
:102E8000CF93C82F1F928F9382E097E09F938F93E9
:102E90000E941F0961E070E080E090E004C0660FCE
:102EA000771F881F991FCA95D2F70E9472100F9042
:102EB0000F900F900F90CF910C946914CF93DF93E4
:102EC0008B3109F408C208F0A0C18B3009F4C6C1E7
:102ED00008F06EC1863009F4D4C148F4853009F495
:102EE000A2C188E596E00E94860880E0DAC18730BA
:102EF00009F4DAC18830A9F787EF96E00E948608C6
:102F000083E793E00E94860883E090E00E940A3401
:102F10001F928F9380E793E09F938F930E941F09E6
:102F20008EE693E00E94860882E090E00E940A34D8
:102F3000C82F8BE593E00E9486081F92CF9386E509
:102F400093E09F938F930E941F0984E593E00E9472
:102F500086088AE493E00E9486088C2F81701F9275
:102F60008F9387E493E09F938F930E941F0985E4DA
:102F700093E00E9486088BE393E00E948608C1FBE1
:102F8000882780F91F928F9388E393E09F938F9314
:102F90000E941F0986E393E00E9486088AE293E07C
:102FA0000E948608C2FB882780F91F928F9387E2D0
:102FB00093E09F938F930E941F0985E293E00E9404
:102FC00086088CE193E00E948608C3FBCC27C0F9F9
:102FD0001F92CF9389E193E09F938F930E941F09E3
:102FE00087E193E00E9486080E94E10CEC0183E0F7
:102FF00093E00E948608DF93CF938EEF92E09F9339
:103000008F930E941F098CEF92E00E94860883EE46
:1030100092E00E9486088C2F81701F928F9380EE21
:1030200092E09F938F930E941F098DB79EB7809661
:103030000FB6F8949EBF0FBE8DBF8EED92E00E943A
:10304000860887EC92E00E948608C1FB882780F9F9
:103050001F928F9384EC92E09F938F930E941F099D
:1030600082EC92E00E94860880EB92E00E94860843
:103070008D2F81701F928F938DEA92E09F938F9393
:103080000E941F098BEA92E00E94860889E992E07B
:103090000E948608D695D1701F92DF9386E992E050
:1030A0009F938F930E941F0984E992E00E948608F3
:1030B00082E892E00E948608C2FB882780F91F926E
:1030C0008F938FE792E09F938F930E941F098DE764
:1030D00092E00E9486088BE692E00E948608C3FB7D
:1030E000882780F91F928F9388E692E09F938F93B1
:1030F0000E941F0986E692E00E9486088CE592E015
:103100000E948608C4FB882780F91F928F9389E567
:1031100092E09F938F930E941F0987E592E00E949F
:10312000860885E492E00E948608C5FB882780F91E
:103130001F928F9382E492E09F938F930E941F09C6
:1031400080E492E00E94860884E292E00E94860871
:10315000C6FB882780F91F928F9381E292E09F93AC
:103160008F930E941F098DB79EB780960FB6F89473
:103170009EBF0FBE8DBF8FE192E00E94860887E15F
:1031800092E00E948608C7FBCC27C0F91F92CF931C
:1031900084E192E09F938F930E941F0982E192E065
:1031A0000E9486080F900F900F900F9081E079C0D9
:1031B000803109F4A8C080F48E3009F092CE90914D
:1031C000E302892F8B7F92FF84608093E30282FF6A
:1031D00097C083E896E08BC0863109F4A4C089319A
:1031E00009F07FCE80EE95E00E94860889E995E09F
:1031F0000E94860882E895E00E94860881E595E0B5
:103200000E94860886E295E02BC08A3299F1E0F4AC
:10321000873261F128F48E3108F463CE8D5127C0D6
:10322000893209F05ECE86EC96E00E9486080E9404
:1032300069149FEF24E38CE0915020408040E1F737
:1032400000C000000E94B70A833468F48A3308F093
:10325000A1C0853359F0883309F043CE83E893E069
:103260000E948608A3CF833409F03BCE80E00E9401
:1032700040179CCF86EE96E00E9486080E94E612D8
:1032800095CF8091E302807F8093E30289E09DE007
:103290000E94860882EE96E00E94860881E0809374
:1032A0003802DF91CF9108959091E302892F8E7FAC
:1032B00090FF81608093E30280FF03C08AEB96E079
:1032C000CFCF8DEA96E00E9486088091E302817F4D
:1032D0008093E3026BCF9091E302892F8D7F91FF62
:1032E00082608093E30281FF08C080EA96E00E943A
:1032F00086088091E3028160EBCF82E996E0B0CF4F
:1033000083E796E0ADCF9091E302892F877F93FF0B
:1033100088608093E30283FF03C087E696E0E7CFEF
:103320008AE596E09DCF8AE496E00E9486080E9496
:103330009B0B1F928F9380E396E09F938F930E9445
:103340001F09809139011F928F9389E196E09F9325
:103350008F930E941F098091F8021F928F9386E03D
:1033600096E09F938F930E941F090E94C80A9F9323
:103370008F937F936F938FEE95E09F938F930E942F
:103380001F098DB79EB742960FB6F8949EBF0FBE29
:103390008DBF0CCF89536BCFCF93C82F882309F4EF
:1033A0006BC08238C1F40E949B0B81FD65C089E32C
:1033B0000E94F30A0E94760F2FEF81EE94E02150D5
:1033C00080409040E1F700C0000089E30E94E60AD7
:1033D000CF910C94760F8338A1F40E949B0B80FD53
:1033E0004BC083E50E94F30A0E94760F2FEF81EE17
:1033F00094E0215080409040E1F700C0000083E558
:10340000E5CF8438A1F40E949B0B82FD35C087E490
:103410000E94F30A0E94760F2FEF81EE94E0215074
:1034200080409040E1F700C0000087E4CFCF8CEFF0
:103430008C0F813A08F043C080913802882399F0BC
:103440008130E1F010923802E8ECF1E08EEC91E08E
:103450002191C21709F45FC08E179F07C9F78C2FFF
:103460000E94F30AB5CF8091A102823269F78C2FB6
:103470000E945E17882341F3CF9108958091A102A5
:103480008232A9F3C431B9F038F4CB3049F084E288
:103490009DE00E94860811C0C93269F0C833B9F7AF
:1034A00089E09DE00E94860886E29DE00E948608F1
:1034B00081E08170DFCF1092380280E0FACF80E2A5
:1034C0008C0F883068F4C77021E030E001C0220F13
:1034D000CA95EAF78091A102822B8093A10278CF4E
:1034E000EBE5EC0FE33040F4F0E0E75AFE4F80816B
:1034F00090E0CF910C94850BC85AC73108F0BCCF2F
:10350000EC2FF0E0EE0FFF1FE45AFE4F8081918117
:10351000CF910C946F0B8C2F0E94E60A0E94760FBD
:103520009ECF1F93CF93DF93182FD0E0C0E0893355
:1035300011F4C0E5D0E0812F0E94CC19209731F41E
:10354000812FDF91CF911F910C9491108FE99FE013
:103550000197F1F700C000002197F0CF0F931F9360
:10356000CF93DF93C62FD42F022FFC0182818823B3
:10357000A1F0609318030E94D40A909317038093DC
:103580001603C77081E001C0880FCA95EAF7DF9182
:10359000CF911F910F910C9487108091180368139D
:1035A00040C020911603309117034FB7F8948091D3
:1035B000120390911303A0911403B09115034FBF10
:1035C000821B930B883C910560F510E21D0F6D176F
:1035D000B9F080E2860F883040F4C77081E001C006
:1035E000880FCA95EAF70E947C10183048F481E0F1
:1035F0009D2F977001C0880F9A95EAF70E94871057
:10360000802F0E94911A183098F4D77081E001C081
:10361000880FDA95EAF7DF91CF911F910F910C9403
:103620007C10C77081E001C0880FCA95EAF7F3CF1C
:10363000DF91CF911F910F910895DF92EF92FF924A
:103640000F931F93CF93DF93E82FF0E0EE56FE4FDA
:10365000D490282F26952695269530E0F901EE572F
:10366000FE4F0491877010E0082E02C01595079553
:103670000A94E2F701701127F901EE58FE4FE49029
:10368000F12C082E02C0F594E7940A94E2F791E039
:10369000E922FF24F901EE59FE4FC491D0E002C0A7
:1036A000D595C7958A95E2F7C170DD2701151105FB
:1036B00019F081EE0E94CC19E114F10419F086EEA4
:1036C0000E94CC198D2D0E94911AEF2819F086EED8
:1036D0000E949110012B19F081EE0E949110CD2BC8
:1036E00051F08CE2DF91CF911F910F91FF90EF90FD
:1036F000DF900C94911ADF91CF911F910F91FF9061
:10370000EF90DF900895FF920F931F93CF93DF9375
:103710008C018AE0F82EF8018491882309F44BC0CB
:10372000813009F044C0E8012196FE018491813086
:1037300049F42196FE0184910E94911A8E010F5F37
:103740001F4FE9CF823039F4E8012296FE018491BF
:103750000E94CC19F3CF833039F4E8012296FE01A0
:1037600084910E949110EACF843041F7E8012296BB
:10377000FE01249190E080E0FE0131962053330B4E
:103780002A30310548F00197C8F2EFE9FFE03197A0
:10379000F1F700C00000F7CFF89EA001F99E500D90
:1037A0001124C901840F951F2491EF01E5CF0E94D8
:1037B0001D1BE801C3CFDF91CF911F910F91FF90A7
:1037C00008951F920F920FB60F9211242F933F93DB
:1037D0004F935F936F937F938F939F93AF93BF9319
:1037E000CF93DF93EF93FF93D091E900DF70809147
:1037F000EC00C82FC17080FDC0E81092E9008091F4
:10380000F000877F8093F00078940E9474141092E7
:10381000E9008091F00088608093F000CD2BCF709C
:10382000C093E900FF91EF91DF91CF91BF91AF91EC
:103830009F918F917F916F915F914F913F912F91C8
:103840000F900FBE0F901F9018951F920F920FB6FA
:103850000F9211242F933F934F935F936F937F9316
:103860008F939F93AF93BF93EF93FF938091E1006A
:1038700082FF15C08091E20082FF11C08091E100BB
:103880008B7F8093E1002091F6022F5F822F62E30D
:103890000E94C933992309F4BEC02093F602809197
:1038A000DA0080FF28C08091D80080FF24C080917A
:1038B000DA008E7F8093DA008091D90080FFE1C02A
:1038C00080E189BD82E189BD09B400FEFDCF81E0C0
:1038D0008093040389E79FE00E9486088091F702A5
:1038E000811109C00E9428090E94F3098091E20019
:1038F00084608093E2008091E10080FF1BC0809192
:10390000E20080FF17C08091E2008E7F8093E2008A
:103910008091E20080618093E2008091D800806213
:103920008093D80019BC85E08093040381E89FE070
:103930000E9486088091E10084FF2DC08091E20002
:1039400084FF29C080E189BD82E189BD89B5982FB6
:10395000917080FFFBCF8091D8008F7D8093D8003D
:103960008091E1008F7E8093E1008091E2008F7E64
:103970008093E2008091E20081608093E200809178
:103980000503882309F487C084E08093040385E855
:103990009FE00E9486088091E10083FF2BC0809108
:1039A000E20083FF27C08091E100877F8093E100E0
:1039B00082E080930403109205038091E1008E7FE2
:1039C0008093E1008091E2008E7F8093E2008091FD
:1039D000E20080618093E20042E060E080E00E94CB
:1039E000C1098091F00088608093F00089E89FE031
:1039F0000E948608FF91EF91BF91AF919F918F91A7
:103A00007F916F915F914F913F912F910F900FBEDA
:103A10000F901F9018951092F6028091F50288235E
:103A200009F43DCF809104038430C1F49091E90002
:103A30009F702091EC00822F817020FD80E8892BFF
:103A400095E09093E9009091EB0090FF04C0909175
:103A5000EE0097FD08C08F708093E9001092F50288
:103A60001ECF1092F1009091E80095FDFACF909151
:103A7000E80090FFF0CF9091E8009E779093E800E7
:103A8000EACF19BC109204038DE79FE00E948608DC
:103A90001092F70230CF8091E30087FD93E090937E
:103AA000040375CF0F931F930E94CA12882321F03D
:103AB0001F910F910C94C80A0E94C80A0091A80295
:103AC0001091A9022091AA023091AB02600F711FE0
:103AD000821F931F1F910F9108950E94CA12811196
:103AE0000C94D40A0E94521DCB0108956091E40207
:103AF000669570E041E050E088E291E00E94523427
:103B0000892B19F481E08093CB020E946D1D909364
:103B1000C5028093C4028091CC0284608093CC0261
:103B20008091E30280FF08C087EC98E09F938F9319
:103B30000E941F090F900F9008959091E40290FF4A
:103B40005AC09170811141C092609093E4028091BB
:103B5000CC0281608093CC026623F1F16091E40293
:103B60007091E5028091E6029091E7020E94501365
:103B70008091E30280FF0FC08091E40286951F923E
:103B80008F9385E298E09F938F930E941F090F9077
:103B90000F900F900F906091E402669570E041E005
:103BA00050E088E291E00E945234892B09F10E9492
:103BB000E71081E08093C70220E04091E702609126
:103BC000E6028091E5020C9462138F3010F09C6144
:103BD000BCCF880F982BB9CF8091E30280FFDBCF59
:103BE0008091E40286951F928F9387E098E0CBCF77
:103BF0000E94761DDECF08958091E4028695815063
:103C000009F48EE061E00C949D1D8091E40286959C
:103C10008F5F8F3008F081E061E00C949D1D9091E2
:103C2000E40290FF07C09695981720F0961710F4BD
:103C30000C94051E61E00C949D1D4F925F926F9253
:103C40007F928F929F92AF92BF92CF92DF92EF922C
:103C5000FF920F931F93CF93DF9300D000D00F926A
:103C6000CDB7DEB77C01FC0183819481892B31F0D3
:103C70008081918189238F3F09F0DEC50F900F90DD
:103C80000F900F900F90DF91CF911F910F91FF90A8
:103C9000EF90DF90CF90BF90AF909F908F907F90EC
:103CA0006F905F904F9008950E94A10E182F682F7B
:103CB00089819A810E94350B69817A81812F0E94C6
:103CC000150D8C01F7018281882309F4AAC598019A
:103CD00022513F452031310508F075C58FEF93E043
:103CE0000E940A34025156E6C52E52E0D52E882392
:103CF00079F180919E02877009F4C0CFF70182812B
:103D0000882309F4BBCF82E00F900F900F900F90A3
:103D10000F90DF91CF911F910F91FF90EF90DF9067
:103D2000CF90BF90AF909F908F907F906F905F905B
:103D30004F900C943910C114F4E0DF06D1F2C601A3
:103D40000E940A34811101C001502FEFC21AD20A19
:103D50000111F1CF1C821B82BB24B3944AE0A42E34
:103D600086010F5F1F4FC6010E940A3489831A82A1
:103D7000882309F4BECF9FEF980F933008F58A830C
:103D8000B98232E0C30ED11CC8010E940A348B8371
:103D9000882309F4AECF8E010F5F1F4FF801808199
:103DA0008823F1F2813009F043C091818281913002
:103DB00049F40E5F1F4F0E94911A0F5F1F4FEECF05
:103DC0006801E9CF923029F40E5F1F4F0E94CC1991
:103DD000F4CF933029F40E5F1F4F0E949110EDCF66
:103DE000943019F00F5F1F4FE8CF0E5F1F4F30E088
:103DF00020E0B8016F5F7F4FF80141818053990B3C
:103E00008A30910550F021503109B8F28FE99FE0D6
:103E10000197F1F700C00000F6CFA29EF001A39E2B
:103E2000F00D11249C012E0F3F1F842F8B01E1CF39
:103E30000E941D1BC2CF81E00E9451100E94FA0F08
:103E400058CF81E00E941610F9CF82E0F5CF882389
:103E500021F08DE39CE00E94831BF701928199235E
:103E600009F4FBC4109218030230FCE51F0708F4A4
:103E700047C106312CE5120738F098012B5F3C450D
:103E80002930310508F03CC10E94E10C9093BB023F
:103E90008093BA0200313CE5130709F400C108F031
:103EA0008EC008309CE5190709F4EFC008F05DC02A
:103EB0000430FCE51F0709F4E0C008F043C00230FD
:103EC0003CE5130709F4CFC003301C4509F4D1C009
:103ED0006091BA021091BB0284E090E00E941E340F
:103EE000612F81E290E00E941E340E94691401CF8C
:103EF000882309F4B2CF89E39CE0ADCF063FFCE50F
:103F00001F07C9F0A0F027E245EE66EE073F3CE54B
:103F1000130709F0A2CFC7010E94AE1AEACE27E22A
:103F200045EE65EEF8CF26E241EE60EEF4CF27E2F3
:103F300045EE64EEF0CF26E241EE62EEECCF28E2F1
:103F400041E0EFCF8091BA02806106309CE519070D
:103F500009F48CC08091BA02886007301C4508F4CF
:103F600085C08091BA02806281C08091BA028D7F43
:103F70000C30FCE51F0709F479C070F48091BA0297
:103F80008C600A303CE5130709F470C008F481C066
:103F90008091BA028E7F6AC08091BA02877F0E300C
:103FA0009CE5190709F462C08091BA028B7F0F303B
:103FB0001C4508F45BC08091BA028F7E57C00C3F4D
:103FC000FCE51F0709F45DC030F503313CE513073C
:103FD00009F46DC078F401319CE5190709F463C058
:103FE00002311C4509F074CF0E9469148091BA0215
:103FF0008F773CC00531FCE51F0709F460C008F469
:1040000074C08091BB0281600B3F1C4509F060CFFA
:104010008093BB025DCF01158DE5180709F44BC0F5
:1040200088F48091BB028D7F0E3FECE51E0781F383
:104030008091BB028E7F0F3F1C4550F38091BB02E5
:104040008360E6CF02302DE5120709F457C008F46B
:1040500042C060E003301D4509F03ACF8EE090E0A9
:104060000E941E3435CF8091BA0281608093BA02DB
:104070002FCF8091BA028260F9CF8091BA0284601A
:10408000F5CF8091BB028260C3CF8091BA02806479
:10409000EDCF0E9469148091BA028068E7CF8091C9
:1040A000BA028F7DE3CF8091BA028F7BDFCF809100
:1040B000BA02837FDBCF8091BB028C7FA9CF809136
:1040C000BA0282FB992790F921E0922790FB82F9AE
:1040D00090FB83F9CBCF8091BB02982F9095917084
:1040E0008E7F892B90FB81F993CF0E946914909168
:1040F000BA02892F97FB87F98058B8CF61E0AECF1D
:104100000631ECE51E0709F0B4C38091A1028A7A5A
:1041100091E009F490E090933702811106C089E2A2
:104120000E94F30A0E94760FE4CD85E3F9CF85E380
:104130009DC38091E30280FF10C08091E4028095CE
:1041400081701F928F938FEA9CE09F938F930E94C0
:104150001F090F900F900F900F908091E40280FF45
:1041600033C08E7F8093E4026091E4027091E50297
:104170008091E6029091E7020E9450138091E30241
:1041800080FF0FC08091E40281701F928F9380E4C2
:104190009CE09F938F930E941F090F900F900F90A8
:1041A0000F900E94E7108091CC0281608093CC0236
:1041B000FFEF20E732E0F15020403040E1F700C04F
:1041C00000000E94C41195CD81608093E40280912B
:1041D000E30280FF0DC01F9281E08F9388E79CE08F
:1041E0009F938F930E941F090F900F900F900F9035
:1041F0008091E40261E086950E949D1D7ACD4CEF8E
:104200005DE165E07EE10E94A70B73CD45E05EE1D4
:104210006CEF7DE1F8CF4EE154E167E274E1F3CF5A
:1042200047E254E16EE174E1EECF46E054E162E131
:1042300074E1E9CF42E154E166E074E1E4CF4EEE8F
:1042400053E16AEF73E1DFCF4AEF53E16EEE73E1C2
:10425000DACF40E354E161E474E1D5CF41E454E1C5
:1042600060E374E1D0CF61E081E0C6CF65E082E039
:104270000E940F1E3ECD68E086E0FACF6EE089E036
:10428000F7CF9091E302892F8E7F90FF816080931A
:10429000E30280FF05C088EF9CE00E94860829CDDC
:1042A00086EE9CE0FACF0E94E61223CDF701008152
:1042B00011819923D9F1C8010E94A10ED82E682F2F
:1042C000C8010E94350BB8018D2D0E94220D8C0172
:1042D000882EF701D280A580A2943FE0A32280918E
:1042E0009E028770A1F0CD2CDD2091F0812F807F80
:1042F000803421F080E2800F883048F082E00E9414
:10430000391080919E028770CC24C3948111C12CF6
:10431000B12EB2942FE0B222FBE0FB1508F440C0AE
:10432000EB2DF0E0E758FB4C0C94FD33C8010E94E4
:104330000C0BD82EC8CF212F2F70A22E107F19F072
:10434000A29490EFA922DD20C9F0AA2069F080E2B2
:10435000800F883010F081100BC08091A102A82A34
:10436000A092A1020E94760F802F0E94CC1918C043
:104370008091A002A82AA092A002F4CF802F0E94D0
:104380009110AA2069F0A094005E083010F081100E
:104390003BC08091A102A822A092A1020E94760FA8
:1043A000EB2DE850FF0B349710F40E949B0BCC20B0
:1043B00009F464CC80919E0280FD60CCF7011282EA
:1043C0008595859585950E945110C7010E941D1EF7
:1043D00080919E028595859585950F900F900F9001
:1043E0000F900F90DF91CF911F910F91FF90EF9061
:1043F000DF90CF90BF90AF909F908F907F906F9005
:104400005F904F900C9416108091A002A822A09269
:10441000A002C4CF312F3F70932E107F103219F0BD
:10442000929480EF9822882071F081E0881661F1E3
:10443000DD20B9F1AA2071F1F701858180FF94CFC9
:104440008F70858327C0DD2091F09091A202892D85
:10445000892BA11003C00E948710A2CFE1E0AE1209
:10446000FACF981709F49CCF8093A20299CFA1109C
:1044700006C00E94E00A892D0E947C1091CFF1E0D5
:10448000AF1609F48DCFF5CFDD2031F025E02A15E8
:1044900008F486CF892DDFCF34E03A1508F480CFB9
:1044A000EACFAA2041F3F9E38F1286C12FEF37EE4E
:1044B00083E0215030408040E1F700C000007CC123
:1044C000812F86958695837061F0813009F068CFE1
:1044D000C8019370D11002C090E080E00E946F0B81
:1044E0005FCFC8019370D11002C090E080E00E94BD
:1044F000850B56CF812F837009F066C0D11050CF45
:10450000802F829586958770880F880F602F6F7037
:10451000462E512C712C612C082E04C0440C551CC5
:10452000661C771C0A94D2F740E050E0BA0104FF01
:104530000FC04FE050E060E070E004C0440F551F32
:10454000661F771F8A95D2F74095509560957095B4
:10455000812F869586958370823019F1D8F4009169
:10456000A3021091A4022091A5023091A6028130ED
:1045700069F04429552966297729CB01BA016023BE
:104580007123822393230E9472100ACF402A512A5A
:10459000622A732ACB01BA016429752986299729D1
:1045A000F2CF44295529662977290091A302109159
:1045B000A4022091A5023091A602CB01BA01602786
:1045C000712782279327DFCF8695DD2011F0812F79
:1045D0008170882309F4E4CE802F829586958770B8
:1045E000880F880F602F6F70462E512C712C612C14
:1045F000082E04C0440C551C661C771C0A94D2F784
:1046000040E050E0BA0104FF0FC04FE050E060E02E
:1046100070E004C0440F551F661F771F8A95D2F7BC
:104620004095509560957095812F869586958370FD
:10463000823019F1D8F400910E0310910F032091EC
:10464000100330911103813069F0442955296629FE
:104650007729CB01BA0160237123822393230E941F
:10466000F00F9ECE402A512A622A732ACB01BA014A
:104670006429752986299729F2CF44295529662965
:10468000772900910E0310910F03209110033091B0
:104690001103CB01BA016027712782279327DFCF4F
:1046A0001F70DD2029F0812F0E945110802FD3CE62
:1046B000802F0E947C10812F0E94161071CE802FB7
:1046C00092EF891609F450C0981578F0E0EF8E1635
:1046D00019F1F1EF8F1609F43FC0DD2009F467C02E
:1046E000A11042CE812F8F713CC023EF821609F4B6
:1046F00040C034EF8312F1CFDD2009F44DC01F71AB
:10470000812F0E945110E8E01E9FC0011124836098
:1047100080939E02812F25C0DD20C9F084E08A1598
:1047200008F43ECE1F7161E070E080E090E004C0CC
:10473000660F771F881F991F1A95D2F700910E03F5
:1047400010910F032091100330911103A4CF95E035
:104750009A1508F425CEE6CF812F8F71DD2009F45C
:10476000ABCF0E9451101CCE812F8F71DD20C9F379
:10477000A3CF60E070E0CB01DD2009F470CF1F71A2
:1047800061E070E080E090E004C0660F771F881F52
:10479000991F1A95D2F763CF81E00E943910F1E09A
:1047A000FA1508F0FDCD82E00E943910F9CDAA205B
:1047B00039F0893309F47ACE802F0E949110F0CD20
:1047C000812F8F7179CF0031FFE51F0709F433CBBB
:1047D00001312FE5120709F438CB0932EDE51E0748
:1047E00009F435CB0A32FDE51F0709F481CB043FFC
:1047F0002CE5120709F497CB08F080CB093D8CE536
:10480000180709F48CCB0A3D9CE5190709F497CBEE
:10481000083DECE51E0709F020CB26E241EE61EEF3
:104820007ACB00313FE5130709F40BCB01319FE54B
:10483000190799F682E006CB85E0DE01119601901A
:104840000D928A95E1F7F701228189819A812111E0
:104850002BCA0E940C0B182F2FCA0631FCE51F072C
:1048600019F580913702811162CC89E20E94E60A33
:1048700059CC01302CE5120709F403CD0F3D3CE57E
:10488000130709F410CD01151C4509F00FCD0E9446
:1048900069148FEF94E3ECE081509040E040E1F741
:1048A00000C000000E94B70A8091A1028272F80144
:1048B000E35CFC45E431F10508F0F8CCEB57FB4C28
:1048C0000C94FD331F93CF93DF9380913E02807F42
:1048D000A9F480913B02882389F080917002D091E5
:1048E0003F026091390270913A02A0913C02B0916E
:1048F0003D02C62FC72316E0D81304C0DF91CF9125
:104900001F91089590E0109711F0CF3F19F4019690
:104910008770F2CF189F9001199F300D1124F90173
:10492000E05CFD4F41814713F2CF40814613EFCF4A
:1049300042814111ECCF438154814A1B5B0B483CBF
:10494000510528F780913E028F70806180933E026E
:10495000F901EB5BFD4F80818F708061808389E37B
:1049600092E00E941D1EDF91CF911F910C94630B6A
:10497000AF92BF92CF92DF92EF92FF920F931F936D
:10498000CF93DF93CDB7DEB761970FB6F894DEBF54
:104990000FBECDBF8C0185E0F801DE011D960190B0
:1049A0000D928A95E1F7F80180819181E28029E3F7
:1049B000A22E22E0B22E60913C0270913D02611560
:1049C000710509F43EC13091390240913A02232F1A
:1049D00024232F3F09F435C1C380D480F0903B02DB
:1049E000F601E61BF70BFF2009F4FBC020913E0205
:1049F000522F507FE83CF10508F0BBC0511178C040
:104A0000FE2C491321C038131FC0E1101DC02F70A8
:104A1000206120933E02C5010E941D1E80913E022E
:104A2000F80185838F2D61960FB6F894DEBF0FBE17
:104A3000CDBFDF91CF911F910F91FF90EF90DF904D
:104A4000CF90BF90AF900895CD2829F0282F29232B
:104A50002F3F09F014C120E0F22FF170DF2E20FF6C
:104A60003DC02091700240913F0256E0241315C0D2
:104A70008D879E878D859E850E94E30E292F229526
:104A80002F702230F8F0243020F59F70F9F0F801F3
:104A90009581907FD9F4D12C1FC030E0529FF00156
:104AA000539FF00D1124E05CFD4F6181961306C009
:104AB0006081861303C06281E61210C02F5F3F4FF2
:104AC0002770D4CF9F7011F0882329F3805E88303F
:104AD00010F3C8010E941D1EFD2CA4CFEE2009F486
:104AE000A1CF80913E02816080933E02F12C9ACF4B
:104AF000491312C0381310C0E1100EC0F80125830D
:104B0000C8010E941D1E86E0F801A9E3B2E00190F1
:104B10000D928A95E1F786CF8D879E878D859E853C
:104B20000E94ED0E882309F1EE20F9F080913E02FB
:104B3000803270F02091390230913A0238872F8309
:104B40001986DB86CA868C87CE0107960E941D1EB9
:104B500086E0F801A9E3B2E001900D928A95E1F7B1
:104B60000E946224FF24F3945DCFC8010E941D1EA1
:104B7000F9CF51110AC089E392E00E941D1E86E020
:104B8000F50111928A95E9F7B1CF49130FC0381397
:104B90000DC0E1100BC0F8012583C8010E941D1E45
:104BA00086E0F50111928A95E9F73CCF8D879E87C3
:104BB0008D859E850E94ED0E8823B9F2EE20A9F224
:104BC00080913E02803220F22091390230913A02E7
:104BD0003A8329831B82DD82CC828E83CE010196AB
:104BE000B5CFE83CF105E0F6FE2CEE2009F4BDCF90
:104BF000491316C0381314C080913E0280FD83CF44
:104C0000982F907F09F47FCFF8018583903F09F4B6
:104C100077CF982F907F905F8F70892B858370CF8F
:104C20008D879E878D859E850E94ED0E811190CF88
:104C300080913E02816080933E02C8010E941D1E49
:104C4000F1CEEE2009F491CF8D879E878D859E85CC
:104C50000E94ED0EF82E882309F487CF86E0F80134
:104C6000A9E3B2E001900D928A95E1F780913902B3
:104C700090913A020E94E30E0E946224D3CE21E07A
:104C80002E25EACE1F93CF93DF93CDB7DEB767977C
:104C90000FB6F894DEBF0FBECDBF342F4B8B252F40
:104CA0005C8B6D8B7E8B8F8B8E899F8961111092AF
:104CB000A0021A8A198A3D872E876F87998B888B65
:104CC00086E0FE013D96DE01179601900D928A95D1
:104CD000E1F7CE0107960E94B824882389F016E0F8
:104CE0008091700290913F02891349C067960FB678
:104CF000F894DEBF0FBECDBFDF91CF911F91089515
:104D000086E0FE013796DE01119601900D928A959C
:104D1000E1F78A859B85892B11F38F8198858923FB
:104D20008F3FE9F220913F0230E0C9010196877080
:104D30009927409170024817190671F40E9469146E
:104D400010923F021092700286E0E9E3F2E0DF0188
:104D50001D928A95E9F7C3CF96E0929FD001939F69
:104D6000B00D1124A05CBD4FFE01319601900D9253
:104D70009A95E1F780933F020E94630BB0CF819F29
:104D8000C0011124805C9D4F0E94B824882309F43F
:104D9000ADCF8091700290E0019687709927809343
:104DA00070029ECF8F929F92AF92BF92CF92DF926E
:104DB000EF92FF920F931F93CF93DF9300D000D019
:104DC00000D0CDB7DEB70AE811E08CEAC82E82E049
:104DD000D82E4601F12CAA24A394B12CD8018D9190
:104DE0008D01F894E82FE295EF70F0E021A18F702B
:104DF000A50102C0440F551F8A95E2F7CA01922F00
:104E0000982B91A392A18095892382A3789400C0C6
:104E1000E6E9F1E030E020E0E12C4191A42FA295F9
:104E2000AF70B0E090968C9190E04F7002C0959575
:104E300087954A95E2F780FD53C08A2D022E01C066
:104E4000880F0A94EAF7E82A2F5F3F4F2630310592
:104E500021F7F801319780810E94510C50EA5A9550
:104E6000F1F7D4018C91E816E9F1EC9281E0F82A8F
:104E7000BFEF8B1A9B0AE1E000391E0709F0AECFA5
:104E80001091B902FF2081F181E08093D0010E944E
:104E9000D40A9093CF018093CE012091CE0130911E
:104EA000CF014FB7F8948091120390911303A09112
:104EB0001403B09115034FBF821B930B0697C0F0EC
:104EC000E12FF0E0E751FD4FD6018D916D01819307
:104ED000B2EBCB16B2E0DB06B9F71092D00108C0F6
:104EE00080E0B1CF80E0C3CF8091D0018111D5CFD8
:104EF0000E94CA12E82E6091B902882309F46AC19F
:104F00008E010F5F1F4F86E0F80111928A95E9F735
:104F1000862F90E0B80187519D4F0E94B4318111D6
:104F20003CC18091D1018F5F8093D101863008F41C
:104F30004FC1E091B802F0E0E751FD4FD801CE013A
:104F4000079611921D92A817B907D9F7409123012E
:104F500050912401609125017091260180912701D3
:104F60000E94C30C8823A1F0109225010E94D40A4C
:104F70008160782F9093270180932601409123012F
:104F80005091240160912501809127010E944226C1
:104F900040911E0150911F016091200170912101EB
:104FA000809122010E94C30C8823A1F0109220015D
:104FB0000E94D40A8160782F90932201809321016E
:104FC00040911E0150911F016091200180912201AA
:104FD0000E9442264091190150911A0160911B01D3
:104FE00070911C0180911D010E94C30C8823A1F0C7
:104FF00010921B010E94D40A8160782F90931D01AA
:1050000080931C014091190150911A0160911B017C
:1050100080911D010E94422640911401509115017A
:105020006091160170911701809118010E94C30CC4
:105030008823A1F0109216010E94D40A8160782F73
:10504000909318018093170140911401509115011C
:1050500060911601809118010E94422640910F0133
:105060005091100160911101709112018091130112
:105070000E94C30C8823A1F0109211010E94D40A4F
:105080008160782F909313018093120140910F015A
:105090005091100160911101809113010E944226EC
:1050A00040910A0150910B0160910C0170910D012A
:1050B00080910E010E94C30C8823A1F010920C0174
:1050C0000E94D40A8160782F90930E0180930D0185
:1050D00040910A0150910B0160910C0180910E01E9
:1050E0000E944226409105015091060160910701FE
:1050F00070910801809109010E94C30C8823A1F0DE
:10510000109207010E94D40A8160782F90930901C0
:1051100080930801409105015091060160910701BB
:10512000809109010E9442264091000150910101A5
:105130006091020170910301809104010E94C30CEF
:105140008823A1F0109202010E94D40A8160782F76
:10515000909304018093030140910001509101015B
:1051600060910201809104010E944226F11001C069
:10517000FE2C8F2D26960FB6F894DEBF0FBECDBF46
:10518000DF91CF911F910F91FF90EF90DF90CF9023
:10519000BF90AF909F908F9008951092D101A091F1
:1051A000B802B0E0A751BD4F9E01295F3F4FE12CEF
:1051B0004D91F80191918F01491731F0AD014150A6
:1051C0005109FA019083E82E0217130789F7BECE22
:1051D000E12CBCCE70E067517D4F8091B80290E029
:1051E00087519D4F0E94E331C1CF81112CC081E0D6
:1051F0006623B1F0809320010E94D40A8160782F49
:10520000909322018093210140911E0150911F0132
:1052100060912001809122010E94422681E0089540
:10522000809325010E94D40A8160782F90932701F2
:105230008093260140912301509124016091250122
:1052400080912701E9CF813041F5662399F0809361
:1052500016010E94D40A8160782F909318018093E0
:105260001701409114015091150160911601809130
:105270001801D2CF80931B010E94D40A8160782F3D
:1052800090931D0180931C014091190150911A01C6
:1052900060911B0180911D01BFCF823049F581E0F3
:1052A000662399F080930C010E94D40A8160782FC4
:1052B00090930E0180930D0140910A0150910B01D2
:1052C00060910C0180910E01A7CF809311010E9483
:1052D000D40A8160782F909313018093120140913A
:1052E0000F0150911001609111018091130194CF31
:1052F000833009F093CF81E0662399F08093020117
:105300000E94D40A8160782F909304018093030156
:1053100040910001509101016091020180910401CE
:105320007BCF809307010E94D40A8160782F9093ED
:105330000901809308014091050150910601609197
:1053400007018091090168CFCDB7DEB7AC970FB6E2
:10535000F894DEBF0FBECDBF84B7877F84BF0FB682
:10536000F894A89580916000886180936000109205
:1053700060000FBE80E890E00FB6F8948093610063
:10538000909361000FBE85B7806885BF85B7806840
:1053900085BF8BEF90E19093C5018093C4010E947B
:1053A00028090E94F3098091E20084608093E20062
:1053B0007894809104038823A1F01091E9001F7074
:1053C0009091EC00892F817090FD80E8182B10924D
:1053D000E9008091E80083FD0E9474141F7010930F
:1053E000E90082E084BD93E095BD9AEF97BD80937C
:1053F0006E001092A8021092A9021092AA021092B6
:10540000AB020E94CA1280932E0180912E01882344
:1054100009F46EC01092290180E180932A010E9454
:10542000CA1281110E948B3180912E0180912E0130
:1054300096E0811190E09093B90286E0891B8093F9
:10544000B80286EF0E94510C87EF0E94510C81E355
:105450000E94510C83E30E94510C82E30E94510C84
:1054600086E30E94510C81E90E94510C80E90E9460
:10547000510C84E90E94510C86E60E94510C87E988
:105480000E94510C86EC0E94510CECEAF2E088EB91
:1054900092E0A9EEB2E011921D928E179F07D9F704
:1054A0000E94D2262FEF46E751E021504040504065
:1054B000E1F700C000000E94D2268091E90280FF3F
:1054C0001BC06FEF82E290E00E941E346FEF83E218
:1054D00090E00E941E346FEF84E290E00E941E3440
:1054E0006FEF7FEF90E080E00E943C340E94B70AAB
:1054F00080E18093290191CF90E080E00E941834F0
:105500008B3E9E4F11F00E94E6120E94CA1281113A
:1055100002C00E94913182E290E00E940A348132FE
:1055200009F0C5C583E290E00E940A34893009F091
:10553000BEC584E290E00E940A34863109F0B7C506
:1055400090E080E00E9418348B3E9E4F11F00E9444
:10555000E61282E090E00E940A348093E3020E9407
:10556000E10C9093BB028093BA0283E090E00E942A
:105570000A34682F70E090E080E00E947210809101
:10558000BC028111EAC08091E30280FF14C086E86A
:105590009EE09F938F930E941F098091E3020F90DA
:1055A0000F9080FF08C080E79EE09F938F930E943A
:1055B0001F090F900F9090E080E00E9418348B3EFE
:1055C0009E4F81F08091E30280FF08C088E49EE056
:1055D0009F938F930E941F090F900F900E94E612D5
:1055E0000E94521488E090E00E9412346093E4021A
:1055F0007093E5028093E6029093E7028091CC02DB
:1056000083608093CC026E7FD1F48091E30280FFAF
:1056100008C08FEF9DE09F938F930E941F090F900A
:105620000F900E94521488E090E00E941234609320
:10563000E4027093E5028093E6029093E7020E94F1
:10564000AC0B8091E30280FF76C086EE9DE09F93D5
:105650008F930E941F098091E3020F900F9080FFAB
:105660006AC08091E40281701F928F9389EC9DE063
:105670009F938F930E941F098091E3020F900F90D8
:105680000F900F9080FF57C08091E40286951F9283
:105690008F938EEA9DE09F938F930E941F098091C4
:1056A000E3020F900F900F900F9080FF44C0809105
:1056B000E5021F928F9384E99DE09F938F930E9450
:1056C0001F098091E3020F900F900F900F9080FFC1
:1056D00032C08091E6021F928F938AE79DE09F93EC
:1056E0008F930E941F098091E3020F900F900F90FB
:1056F0000F9080FF20C08091E7021F928F9380E679
:105700009DE09F938F930E941F098091E3020F9069
:105710000F900F900F9080FF0EC08091E8021F92B3
:105720008F9384E49DE09F938F930E941F090F90B5
:105730000F900F900F901092CB028091CC0284605A
:105740008093CC028091E40280FF04C060E08695E3
:105750000E949D1D81E08093BC0224ED32E04CEA62
:1057600051E06EEA862E61E0962E61E070E0D40191
:105770008D914D01E82FE295EF70F0E0F1A08F7070
:10578000E82E8B0101C0000F8A95EAF7902F9095C3
:105790009F2191A382A1802B82A3DA018D91AD017B
:1057A000082F02950F7010E0D8019196BC90919748
:1057B0008F70F82E6B0101C0CC0C8A95EAF79C2DF6
:1057C00090959B2191969C93919792968C9192970C
:1057D0008C2992968C93929780A190E002C0959527
:1057E0008795EA94E2F781709096EC91F0E002C020
:1057F000F595E795FA94E2F790E0E0FD92E0892BC9
:10580000F90181939F01F0EB8F16F1E09F0609F0FB
:10581000AECF80912E0192E0811190E09093D3025F
:1058200082E0891B8093BD028FE291E09093BF02DA
:105830008093BE0288E69FE00E94860889EE92E08F
:105840002CE0280F2CA780910403853071F484E6A6
:105850009FE00E94860800E112E1809104038530F8
:10586000D1F10E9469140E949B0B0E94D2268111E3
:105870000E94C80A17ED412E12E0512E09EE602E4B
:1058800002E0702E10E000E087EAC82E8EE0D82EED
:105890009FE9A92E9EE0B92E0BA7D3013D903D01B3
:1058A000F20121902F0123104EC00F5F1F4F0C30CB
:1058B000110591F78FEF8EA38FA318A60E94D40A2B
:1058C0008160782F9AA789A74EA15FA168A58AA5B4
:1058D0000E94422662C080910403843021F110921C
:1058E000C00248E150E080E40FB6F894A8954093D8
:1058F00060000FBE8093600083B7817F846083BFA8
:1059000083B7816083BF7894889583B78E7F83BF88
:105910000FB6F894A895809160008861809360002C
:10592000109260000FBE80910303882309F495CF85
:105930000E94D226E9EEF2E081918111A2C39CA5DA
:105940009E13FACF8ACF8091E30281FD81C1232487
:10595000E12CFF24F394822D8F2109F4A9C10E9428
:10596000CA128823A1F0E9A22BA52AA33F2081E037
:1059700009F480E08BA30E94D40A8160782F9DA354
:105980008CA349A15AA16BA18DA10E944226F801C6
:10599000E952FD4F8081F826F0828091CB02882366
:1059A00009F476C08091CA02E091E402E695E81B12
:1059B000E093C602823009F081C1F0E0E651F14F78
:1059C000E4910E2F10E0AFE7EA2EA2E1FA2E8091CB
:1059D000C702882361F01092C7020E946D1D909348
:1059E000C5028093C4021092C9021092C8020E949C
:1059F0006D1D2091C4023091C502DC01A21BB30BC6
:105A00009D012F3F3F4708F043C02091C30222234E
:105A100011F11092C3022091C1023091C202821B87
:105A2000930B8F3F9F47B8F4205D3A483093C202F2
:105A30002093C1028091E30280FF08C08BEB9EE0BF
:105A40009F938F930E941F090F900F908091CC021B
:105A500088608093CC02C090C802D090C902E091C7
:105A6000C402F091C5020E0F1F1F1093C5020093D0
:105A7000C40284EC92E0F70109958091C8029091EC
:105A8000C902892B29F4CD2819F081E08093C30243
:105A900001ED12E03CEAC32E31E0D32E4EEAA42EF3
:105AA00041E0B42E54EDE52E52E0F52E512C612C40
:105AB00064E0862E912CD701ED917D01EE0FEE0F63
:105AC000D5012D915D01A22FA295AF70B0E0909607
:105AD0008C9190E02F7002C0959587952A95E2F7FA
